{
  "contractName": "Casino",
  "abi": [
    {
      "inputs": [],
      "stateMutability": "nonpayable",
      "type": "constructor"
    },
    {
      "anonymous": false,
      "inputs": [
        {
          "indexed": true,
          "internalType": "address",
          "name": "previousOwner",
          "type": "address"
        },
        {
          "indexed": true,
          "internalType": "address",
          "name": "newOwner",
          "type": "address"
        }
      ],
      "name": "OwnershipTransferred",
      "type": "event"
    },
    {
      "inputs": [],
      "name": "bet",
      "outputs": [
        {
          "internalType": "uint256",
          "name": "",
          "type": "uint256"
        }
      ],
      "stateMutability": "view",
      "type": "function",
      "constant": true
    },
    {
      "inputs": [],
      "name": "owner",
      "outputs": [
        {
          "internalType": "address",
          "name": "",
          "type": "address"
        }
      ],
      "stateMutability": "view",
      "type": "function",
      "constant": true
    },
    {
      "inputs": [
        {
          "internalType": "address",
          "name": "",
          "type": "address"
        }
      ],
      "name": "playerInfo",
      "outputs": [
        {
          "internalType": "uint256",
          "name": "amountBet",
          "type": "uint256"
        },
        {
          "internalType": "uint16",
          "name": "teamSelected",
          "type": "uint16"
        }
      ],
      "stateMutability": "view",
      "type": "function",
      "constant": true
    },
    {
      "inputs": [
        {
          "internalType": "uint256",
          "name": "",
          "type": "uint256"
        }
      ],
      "name": "playersTeamA",
      "outputs": [
        {
          "internalType": "address payable",
          "name": "",
          "type": "address"
        }
      ],
      "stateMutability": "view",
      "type": "function",
      "constant": true
    },
    {
      "inputs": [
        {
          "internalType": "uint256",
          "name": "",
          "type": "uint256"
        }
      ],
      "name": "playersTeamB",
      "outputs": [
        {
          "internalType": "address payable",
          "name": "",
          "type": "address"
        }
      ],
      "stateMutability": "view",
      "type": "function",
      "constant": true
    },
    {
      "inputs": [],
      "name": "prizePool",
      "outputs": [
        {
          "internalType": "uint256",
          "name": "",
          "type": "uint256"
        }
      ],
      "stateMutability": "view",
      "type": "function",
      "constant": true
    },
    {
      "inputs": [],
      "name": "renounceOwnership",
      "outputs": [],
      "stateMutability": "nonpayable",
      "type": "function"
    },
    {
      "inputs": [
        {
          "internalType": "address",
          "name": "newOwner",
          "type": "address"
        }
      ],
      "name": "transferOwnership",
      "outputs": [],
      "stateMutability": "nonpayable",
      "type": "function"
    },
    {
      "inputs": [
        {
          "internalType": "address payable",
          "name": "player",
          "type": "address"
        }
      ],
      "name": "checkPlayerTeamA",
      "outputs": [
        {
          "internalType": "bool",
          "name": "",
          "type": "bool"
        }
      ],
      "stateMutability": "view",
      "type": "function",
      "constant": true
    },
    {
      "inputs": [
        {
          "internalType": "address payable",
          "name": "player",
          "type": "address"
        }
      ],
      "name": "checkPlayerTeamB",
      "outputs": [
        {
          "internalType": "bool",
          "name": "",
          "type": "bool"
        }
      ],
      "stateMutability": "view",
      "type": "function",
      "constant": true
    },
    {
      "inputs": [
        {
          "internalType": "uint8",
          "name": "_teamSelected",
          "type": "uint8"
        }
      ],
      "name": "submitBet",
      "outputs": [],
      "stateMutability": "payable",
      "type": "function",
      "payable": true
    },
    {
      "inputs": [
        {
          "internalType": "uint16",
          "name": "teamWinner",
          "type": "uint16"
        }
      ],
      "name": "payOut",
      "outputs": [],
      "stateMutability": "nonpayable",
      "type": "function"
    },
    {
      "inputs": [],
      "name": "withdraw",
      "outputs": [],
      "stateMutability": "nonpayable",
      "type": "function"
    },
    {
      "inputs": [],
      "name": "checkPrizePool",
      "outputs": [
        {
          "internalType": "uint256",
          "name": "",
          "type": "uint256"
        }
      ],
      "stateMutability": "view",
      "type": "function",
      "constant": true
    },
    {
      "inputs": [],
      "name": "openBet",
      "outputs": [],
      "stateMutability": "nonpayable",
      "type": "function"
    },
    {
      "inputs": [],
      "name": "closeBet",
      "outputs": [],
      "stateMutability": "nonpayable",
      "type": "function"
    }
  ],
  "bytecode": "0x60806040526001600560006101000a81548160ff02191690831515021790555034801561002b57600080fd5b5061005a61004661006c640100000000026401000000009004565b610074640100000000026401000000009004565b655af3107a4000600181905550610138565b600033905090565b60008060009054906101000a900473ffffffffffffffffffffffffffffffffffffffff169050816000806101000a81548173ffffffffffffffffffffffffffffffffffffffff021916908373ffffffffffffffffffffffffffffffffffffffff1602179055508173ffffffffffffffffffffffffffffffffffffffff168173ffffffffffffffffffffffffffffffffffffffff167f8be0079c531659141344cd1fd0a4f28419497f9722a3daafe3b4186f6b6457e060405160405180910390a35050565b6114ab806101476000396000f3fe608060405260043610610110576000357c0100000000000000000000000000000000000000000000000000000000900480636735fe11116100a75780638da5cb5b116100765780638da5cb5b14610315578063eaa968cc14610340578063eb4bf36814610357578063f2fde38b1461039457610110565b80636735fe111461027a578063715018a6146102b7578063719ce73e146102ce57806373b0b6aa146102f957610110565b806334867a5a116100e357806334867a5a146101ab5780633ccfd60b146101e85780634b114691146101ff5780635c90fdb51461023d57610110565b80630426442d1461011557806311610c2514610140578063225afdfc1461016b5780632d1e936e14610182575b600080fd5b34801561012157600080fd5b5061012a6103bd565b6040516101379190610eb1565b60405180910390f35b34801561014c57600080fd5b506101556103c7565b6040516101629190610eb1565b60405180910390f35b34801561017757600080fd5b506101806103cd565b005b34801561018e57600080fd5b506101a960048036038101906101a49190610f0b565b610466565b005b3480156101b757600080fd5b506101d260048036038101906101cd9190610f64565b6106fc565b6040516101df9190610fd2565b60405180910390f35b3480156101f457600080fd5b506101fd61073b565b005b34801561020b57600080fd5b506102266004803603810190610221919061102b565b61081d565b604051610234929190611067565b60405180910390f35b34801561024957600080fd5b50610264600480360381019061025f9190610f64565b61084f565b6040516102719190610fd2565b60405180910390f35b34801561028657600080fd5b506102a1600480360381019061029c91906110bc565b61088e565b6040516102ae9190611104565b60405180910390f35b3480156102c357600080fd5b506102cc61093d565b005b3480156102da57600080fd5b506102e36109c5565b6040516102f09190610eb1565b60405180910390f35b610313600480360381019061030e9190611158565b6109cb565b005b34801561032157600080fd5b5061032a610b25565b6040516103379190611194565b60405180910390f35b34801561034c57600080fd5b50610355610b4e565b005b34801561036357600080fd5b5061037e600480360381019061037991906110bc565b610be7565b60405161038b9190611104565b60405180910390f35b3480156103a057600080fd5b506103bb60048036038101906103b6919061102b565b610c96565b005b6000600254905090565b60015481565b6103d5610d8e565b73ffffffffffffffffffffffffffffffffffffffff166103f3610b25565b73ffffffffffffffffffffffffffffffffffffffff1614610449576040517f08c379a00000000000000000000000000000000000000000000000000000000081526004016104409061120c565b60405180910390fd5b6001600560006101000a81548160ff021916908315150217905550565b61046e610d8e565b73ffffffffffffffffffffffffffffffffffffffff1661048c610b25565b73ffffffffffffffffffffffffffffffffffffffff16146104e2576040517f08c379a00000000000000000000000000000000000000000000000000000000081526004016104d99061120c565b60405180910390fd5b60008161ffff1614156105ef5760005b6003805490508110156105c557600381815481106105135761051261122c565b5b9060005260206000200160009054906101000a900473ffffffffffffffffffffffffffffffffffffffff1673ffffffffffffffffffffffffffffffffffffffff166108fc600480549050600380549050600161056f91906112b9565b61057991906112ea565b6001546105869190611344565b9081150290604051600060405180830381858888f193505050501580156105b1573d6000803e3d6000fd5b5080806105bd9061139a565b9150506104f2565b50600360006105d49190610e5a565b600460006105e29190610e5a565b6105ea610b4e565b6106f9565b60018161ffff1614156106f85760005b6004805490508110156106d257600481815481106106205761061f61122c565b5b9060005260206000200160009054906101000a900473ffffffffffffffffffffffffffffffffffffffff1673ffffffffffffffffffffffffffffffffffffffff166108fc600380549050600480549050600161067c91906112b9565b61068691906112ea565b6001546106939190611344565b9081150290604051600060405180830381858888f193505050501580156106be573d6000803e3d6000fd5b5080806106ca9061139a565b9150506105ff565b50600360006106e19190610e5a565b600460006106ef9190610e5a565b6106f7610b4e565b5b5b50565b6003818154811061070c57600080fd5b906000526020600020016000915054906101000a900473ffffffffffffffffffffffffffffffffffffffff1681565b610743610d8e565b73ffffffffffffffffffffffffffffffffffffffff16610761610b25565b73ffffffffffffffffffffffffffffffffffffffff16146107b7576040517f08c379a00000000000000000000000000000000000000000000000000000000081526004016107ae9061120c565b60405180910390fd5b60003073ffffffffffffffffffffffffffffffffffffffff163190503373ffffffffffffffffffffffffffffffffffffffff166108fc829081150290604051600060405180830381858888f19350505050158015610819573d6000803e3d6000fd5b5050565b60066020528060005260406000206000915090508060000154908060010160009054906101000a900461ffff16905082565b6004818154811061085f57600080fd5b906000526020600020016000915054906101000a900473ffffffffffffffffffffffffffffffffffffffff1681565b600080600090505b600380549050811015610932578273ffffffffffffffffffffffffffffffffffffffff16600382815481106108ce576108cd61122c565b5b9060005260206000200160009054906101000a900473ffffffffffffffffffffffffffffffffffffffff1673ffffffffffffffffffffffffffffffffffffffff16141561091f576001915050610938565b808061092a9061139a565b915050610896565b50600090505b919050565b610945610d8e565b73ffffffffffffffffffffffffffffffffffffffff16610963610b25565b73ffffffffffffffffffffffffffffffffffffffff16146109b9576040517f08c379a00000000000000000000000000000000000000000000000000000000081526004016109b09061120c565b60405180910390fd5b6109c36000610d96565b565b60025481565b60015434146109d957600080fd5b600560009054906101000a900460ff166109f257600080fd5b6109fb3361088e565b15610a0557600080fd5b610a0e3361088e565b158015610a1e575060008160ff16145b15610a87576003339080600181540180825580915050600190039060005260206000200160009091909190916101000a81548173ffffffffffffffffffffffffffffffffffffffff021916908373ffffffffffffffffffffffffffffffffffffffff1602179055505b610a9033610be7565b158015610aa0575060018160ff16145b15610b09576004339080600181540180825580915050600190039060005260206000200160009091909190916101000a81548173ffffffffffffffffffffffffffffffffffffffff021916908373ffffffffffffffffffffffffffffffffffffffff1602179055505b3460026000828254610b1b9190611344565b9250508190555050565b60008060009054906101000a900473ffffffffffffffffffffffffffffffffffffffff16905090565b610b56610d8e565b73ffffffffffffffffffffffffffffffffffffffff16610b74610b25565b73ffffffffffffffffffffffffffffffffffffffff1614610bca576040517f08c379a0000000000000000000000000000000000000000000000000000000008152600401610bc19061120c565b60405180910390fd5b6000600560006101000a81548160ff021916908315150217905550565b600080600090505b600480549050811015610c8b578273ffffffffffffffffffffffffffffffffffffffff1660048281548110610c2757610c2661122c565b5b9060005260206000200160009054906101000a900473ffffffffffffffffffffffffffffffffffffffff1673ffffffffffffffffffffffffffffffffffffffff161415610c78576001915050610c91565b8080610c839061139a565b915050610bef565b50600090505b919050565b610c9e610d8e565b73ffffffffffffffffffffffffffffffffffffffff16610cbc610b25565b73ffffffffffffffffffffffffffffffffffffffff1614610d12576040517f08c379a0000000000000000000000000000000000000000000000000000000008152600401610d099061120c565b60405180910390fd5b600073ffffffffffffffffffffffffffffffffffffffff168173ffffffffffffffffffffffffffffffffffffffff161415610d82576040517f08c379a0000000000000000000000000000000000000000000000000000000008152600401610d7990611455565b60405180910390fd5b610d8b81610d96565b50565b600033905090565b60008060009054906101000a900473ffffffffffffffffffffffffffffffffffffffff169050816000806101000a81548173ffffffffffffffffffffffffffffffffffffffff021916908373ffffffffffffffffffffffffffffffffffffffff1602179055508173ffffffffffffffffffffffffffffffffffffffff168173ffffffffffffffffffffffffffffffffffffffff167f8be0079c531659141344cd1fd0a4f28419497f9722a3daafe3b4186f6b6457e060405160405180910390a35050565b5080546000825590600052602060002090810190610e789190610e7b565b50565b5b80821115610e94576000816000905550600101610e7c565b5090565b6000819050919050565b610eab81610e98565b82525050565b6000602082019050610ec66000830184610ea2565b92915050565b600080fd5b600061ffff82169050919050565b610ee881610ed1565b8114610ef357600080fd5b50565b600081359050610f0581610edf565b92915050565b600060208284031215610f2157610f20610ecc565b5b6000610f2f84828501610ef6565b91505092915050565b610f4181610e98565b8114610f4c57600080fd5b50565b600081359050610f5e81610f38565b92915050565b600060208284031215610f7a57610f79610ecc565b5b6000610f8884828501610f4f565b91505092915050565b600073ffffffffffffffffffffffffffffffffffffffff82169050919050565b6000610fbc82610f91565b9050919050565b610fcc81610fb1565b82525050565b6000602082019050610fe76000830184610fc3565b92915050565b6000610ff882610f91565b9050919050565b61100881610fed565b811461101357600080fd5b50565b60008135905061102581610fff565b92915050565b60006020828403121561104157611040610ecc565b5b600061104f84828501611016565b91505092915050565b61106181610ed1565b82525050565b600060408201905061107c6000830185610ea2565b6110896020830184611058565b9392505050565b61109981610fb1565b81146110a457600080fd5b50565b6000813590506110b681611090565b92915050565b6000602082840312156110d2576110d1610ecc565b5b60006110e0848285016110a7565b91505092915050565b60008115159050919050565b6110fe816110e9565b82525050565b600060208201905061111960008301846110f5565b92915050565b600060ff82169050919050565b6111358161111f565b811461114057600080fd5b50565b6000813590506111528161112c565b92915050565b60006020828403121561116e5761116d610ecc565b5b600061117c84828501611143565b91505092915050565b61118e81610fed565b82525050565b60006020820190506111a96000830184611185565b92915050565b600082825260208201905092915050565b7f4f776e61626c653a2063616c6c6572206973206e6f7420746865206f776e6572600082015250565b60006111f66020836111af565b9150611201826111c0565b602082019050919050565b60006020820190508181036000830152611225816111e9565b9050919050565b7f4e487b7100000000000000000000000000000000000000000000000000000000600052603260045260246000fd5b7f4e487b7100000000000000000000000000000000000000000000000000000000600052601260045260246000fd5b7f4e487b7100000000000000000000000000000000000000000000000000000000600052601160045260246000fd5b60006112c482610e98565b91506112cf83610e98565b9250826112df576112de61125b565b5b828204905092915050565b60006112f582610e98565b915061130083610e98565b9250817fffffffffffffffffffffffffffffffffffffffffffffffffffffffffffffffff04831182151516156113395761133861128a565b5b828202905092915050565b600061134f82610e98565b915061135a83610e98565b9250827fffffffffffffffffffffffffffffffffffffffffffffffffffffffffffffffff0382111561138f5761138e61128a565b5b828201905092915050565b60006113a582610e98565b91507fffffffffffffffffffffffffffffffffffffffffffffffffffffffffffffffff8214156113d8576113d761128a565b5b600182019050919050565b7f4f776e61626c653a206e6577206f776e657220697320746865207a65726f206160008201527f6464726573730000000000000000000000000000000000000000000000000000602082015250565b600061143f6026836111af565b915061144a826113e3565b604082019050919050565b6000602082019050818103600083015261146e81611432565b905091905056fea26469706673582212203c99f2ea751f4c52550b0e7c5792722154d98cb1c8c3161022d2d6f858d4d99e64736f6c634300080b0033",
  "immutableReferences": {},
  "source": "// SPDX-License-Identifier: MIT\npragma solidity ^0.8.0;\n\nimport \"@openzeppelin/contracts/access/Ownable.sol\";\n\ncontract Casino is Ownable {\n   uint256 public bet;\n   uint256 public prizePool;\n   address payable[] public playersTeamA;\n   address payable[] public playersTeamB;\n   bool private betIsOpen = true;\n   struct Player {\n      uint256 amountBet;\n      uint16 teamSelected;\n    }\n// The address of the player and team selected => the user info\n   mapping(address => Player) public playerInfo;\n   \n   \n  constructor() {\n      bet = 100000000000000;\n    }\n    \nfunction checkPlayerTeamA(address payable player) public view returns(bool){\n      for(uint256 i = 0; i < playersTeamA.length; i++){\n         if(playersTeamA[i] == player) return true;\n      }\n      return false;\n    }\n\nfunction checkPlayerTeamB(address payable player) public view returns(bool){\n      for(uint256 i = 0; i < playersTeamB.length; i++){\n         if(playersTeamB[i] == player) return true;\n      }\n      return false;\n    }\n\nfunction submitBet(uint8 _teamSelected) public payable {\n      // require value sent for call == bet \n      // require that a person can not bet twice\n      require(msg.value == bet);\n      require(betIsOpen);\n      require(!checkPlayerTeamA(payable(msg.sender)));\n\n//If player exists in array, do not add wallet address to pool, but if has not bet yet, push wallet address, aka player to address pool\n      if (!checkPlayerTeamA(payable(msg.sender)) && _teamSelected == 0){\n        playersTeamA.push(payable(msg.sender));\n      }\n\n      if (!checkPlayerTeamB(payable(msg.sender)) && _teamSelected == 1){\n        playersTeamB.push(payable(msg.sender));\n      }\n// Add value from msg.sender to prizePool\n        prizePool += msg.value;\n    }\n\n// Pay Out for team 0 (A) or 1 (B)\nfunction payOut(uint16 teamWinner) public onlyOwner {\n        if (teamWinner == 0) {\n            for(uint256 i = 0; i < playersTeamA.length; i++){\n            playersTeamA[i].transfer((bet+(1/playersTeamA.length * playersTeamB.length)));\n            }\n            delete playersTeamA;\n            delete playersTeamB;\n            closeBet();\n            }\n            else if (teamWinner == 1) {\n            for(uint256 i = 0; i < playersTeamB.length; i++){\n            playersTeamB[i].transfer((bet+(1/playersTeamB.length * playersTeamA.length)));\n            }\n            delete playersTeamA;\n            delete playersTeamB;\n            closeBet();\n            }\n        }\n\n// Withdraw remaining funds\nfunction withdraw() public onlyOwner {\n        uint balance = address(this).balance;\n        payable(msg.sender).transfer(balance);\n    }\n\n// Check Prize Pool\nfunction checkPrizePool() public view returns(uint256){\n       return prizePool;\n    }\n\nfunction openBet() public onlyOwner {\n        betIsOpen = true;\n    }\n\nfunction closeBet() public onlyOwner {\n        betIsOpen = false;\n    }\n}\n",
  "sourcePath": "/Users/balthazar/coding-projects/sports-casino/contracts/Casino.sol",
  "compiler": {
    "name": "solc",
    "version": "0.8.11+commit.d7f03943.Emscripten.clang"
  },
  "schemaVersion": "3.3.4",
  "updatedAt": "2022-06-23T16:14:58.029Z",
  "networkType": "ethereum",
  "devdoc": {
    "kind": "dev",
    "methods": {
      "owner()": {
        "details": "Returns the address of the current owner."
      },
      "renounceOwnership()": {
        "details": "Leaves the contract without owner. It will not be possible to call `onlyOwner` functions anymore. Can only be called by the current owner. NOTE: Renouncing ownership will leave the contract without an owner, thereby removing any functionality that is only available to the owner."
      },
      "transferOwnership(address)": {
        "details": "Transfers ownership of the contract to a new account (`newOwner`). Can only be called by the current owner."
      }
    },
    "version": 1
  },
  "userdoc": {
    "kind": "user",
    "methods": {},
    "version": 1
  }
}