{
  "contractName": "Casino",
  "abi": [
    {
      "inputs": [],
      "stateMutability": "nonpayable",
      "type": "constructor"
    },
    {
      "anonymous": false,
      "inputs": [
        {
          "indexed": true,
          "internalType": "address",
          "name": "previousOwner",
          "type": "address"
        },
        {
          "indexed": true,
          "internalType": "address",
          "name": "newOwner",
          "type": "address"
        }
      ],
      "name": "OwnershipTransferred",
      "type": "event"
    },
    {
      "inputs": [],
      "name": "bet",
      "outputs": [
        {
          "internalType": "uint256",
          "name": "",
          "type": "uint256"
        }
      ],
      "stateMutability": "view",
      "type": "function",
      "constant": true
    },
    {
      "inputs": [],
      "name": "owner",
      "outputs": [
        {
          "internalType": "address",
          "name": "",
          "type": "address"
        }
      ],
      "stateMutability": "view",
      "type": "function",
      "constant": true
    },
    {
      "inputs": [
        {
          "internalType": "address",
          "name": "",
          "type": "address"
        }
      ],
      "name": "playerInfo",
      "outputs": [
        {
          "internalType": "uint256",
          "name": "amountBet",
          "type": "uint256"
        },
        {
          "internalType": "uint16",
          "name": "teamSelected",
          "type": "uint16"
        }
      ],
      "stateMutability": "view",
      "type": "function",
      "constant": true
    },
    {
      "inputs": [
        {
          "internalType": "uint256",
          "name": "",
          "type": "uint256"
        }
      ],
      "name": "playersTeamA",
      "outputs": [
        {
          "internalType": "address payable",
          "name": "",
          "type": "address"
        }
      ],
      "stateMutability": "view",
      "type": "function",
      "constant": true
    },
    {
      "inputs": [
        {
          "internalType": "uint256",
          "name": "",
          "type": "uint256"
        }
      ],
      "name": "playersTeamB",
      "outputs": [
        {
          "internalType": "address payable",
          "name": "",
          "type": "address"
        }
      ],
      "stateMutability": "view",
      "type": "function",
      "constant": true
    },
    {
      "inputs": [],
      "name": "prizePool",
      "outputs": [
        {
          "internalType": "uint256",
          "name": "",
          "type": "uint256"
        }
      ],
      "stateMutability": "view",
      "type": "function",
      "constant": true
    },
    {
      "inputs": [],
      "name": "renounceOwnership",
      "outputs": [],
      "stateMutability": "nonpayable",
      "type": "function"
    },
    {
      "inputs": [
        {
          "internalType": "address",
          "name": "newOwner",
          "type": "address"
        }
      ],
      "name": "transferOwnership",
      "outputs": [],
      "stateMutability": "nonpayable",
      "type": "function"
    },
    {
      "inputs": [
        {
          "internalType": "address payable",
          "name": "player",
          "type": "address"
        }
      ],
      "name": "checkPlayerTeamA",
      "outputs": [
        {
          "internalType": "bool",
          "name": "",
          "type": "bool"
        }
      ],
      "stateMutability": "view",
      "type": "function",
      "constant": true
    },
    {
      "inputs": [
        {
          "internalType": "address payable",
          "name": "player",
          "type": "address"
        }
      ],
      "name": "checkPlayerTeamB",
      "outputs": [
        {
          "internalType": "bool",
          "name": "",
          "type": "bool"
        }
      ],
      "stateMutability": "view",
      "type": "function",
      "constant": true
    },
    {
      "inputs": [
        {
          "internalType": "uint8",
          "name": "_teamSelected",
          "type": "uint8"
        }
      ],
      "name": "submitBet",
      "outputs": [],
      "stateMutability": "payable",
      "type": "function",
      "payable": true
    },
    {
      "inputs": [
        {
          "internalType": "uint16",
          "name": "teamWinner",
          "type": "uint16"
        }
      ],
      "name": "payOut",
      "outputs": [],
      "stateMutability": "nonpayable",
      "type": "function"
    },
    {
      "inputs": [],
      "name": "withdraw",
      "outputs": [],
      "stateMutability": "nonpayable",
      "type": "function"
    },
    {
      "inputs": [],
      "name": "checkPrizePool",
      "outputs": [
        {
          "internalType": "uint256",
          "name": "",
          "type": "uint256"
        }
      ],
      "stateMutability": "view",
      "type": "function",
      "constant": true
    },
    {
      "inputs": [],
      "name": "openBet",
      "outputs": [],
      "stateMutability": "nonpayable",
      "type": "function"
    },
    {
      "inputs": [],
      "name": "closeBet",
      "outputs": [],
      "stateMutability": "nonpayable",
      "type": "function"
    }
  ],
  "bytecode": "0x60806040526001600560006101000a81548160ff02191690831515021790555034801561002b57600080fd5b5061005a61004661006c640100000000026401000000009004565b610074640100000000026401000000009004565b655af3107a4000600181905550610138565b600033905090565b60008060009054906101000a900473ffffffffffffffffffffffffffffffffffffffff169050816000806101000a81548173ffffffffffffffffffffffffffffffffffffffff021916908373ffffffffffffffffffffffffffffffffffffffff1602179055508173ffffffffffffffffffffffffffffffffffffffff168173ffffffffffffffffffffffffffffffffffffffff167f8be0079c531659141344cd1fd0a4f28419497f9722a3daafe3b4186f6b6457e060405160405180910390a35050565b611492806101476000396000f3fe608060405260043610610110576000357c0100000000000000000000000000000000000000000000000000000000900480636735fe11116100a75780638da5cb5b116100765780638da5cb5b14610315578063eaa968cc14610340578063eb4bf36814610357578063f2fde38b1461039457610110565b80636735fe111461027a578063715018a6146102b7578063719ce73e146102ce57806373b0b6aa146102f957610110565b806334867a5a116100e357806334867a5a146101ab5780633ccfd60b146101e85780634b114691146101ff5780635c90fdb51461023d57610110565b80630426442d1461011557806311610c2514610140578063225afdfc1461016b5780632d1e936e14610182575b600080fd5b34801561012157600080fd5b5061012a6103bd565b6040516101379190610e98565b60405180910390f35b34801561014c57600080fd5b506101556103c7565b6040516101629190610e98565b60405180910390f35b34801561017757600080fd5b506101806103cd565b005b34801561018e57600080fd5b506101a960048036038101906101a49190610ef2565b610466565b005b3480156101b757600080fd5b506101d260048036038101906101cd9190610f4b565b6106fc565b6040516101df9190610fb9565b60405180910390f35b3480156101f457600080fd5b506101fd61073b565b005b34801561020b57600080fd5b5061022660048036038101906102219190611012565b61081d565b60405161023492919061104e565b60405180910390f35b34801561024957600080fd5b50610264600480360381019061025f9190610f4b565b61084f565b6040516102719190610fb9565b60405180910390f35b34801561028657600080fd5b506102a1600480360381019061029c91906110a3565b61088e565b6040516102ae91906110eb565b60405180910390f35b3480156102c357600080fd5b506102cc61093d565b005b3480156102da57600080fd5b506102e36109c5565b6040516102f09190610e98565b60405180910390f35b610313600480360381019061030e919061113f565b6109cb565b005b34801561032157600080fd5b5061032a610b0c565b604051610337919061117b565b60405180910390f35b34801561034c57600080fd5b50610355610b35565b005b34801561036357600080fd5b5061037e600480360381019061037991906110a3565b610bce565b60405161038b91906110eb565b60405180910390f35b3480156103a057600080fd5b506103bb60048036038101906103b69190611012565b610c7d565b005b6000600254905090565b60015481565b6103d5610d75565b73ffffffffffffffffffffffffffffffffffffffff166103f3610b0c565b73ffffffffffffffffffffffffffffffffffffffff1614610449576040517f08c379a0000000000000000000000000000000000000000000000000000000008152600401610440906111f3565b60405180910390fd5b6001600560006101000a81548160ff021916908315150217905550565b61046e610d75565b73ffffffffffffffffffffffffffffffffffffffff1661048c610b0c565b73ffffffffffffffffffffffffffffffffffffffff16146104e2576040517f08c379a00000000000000000000000000000000000000000000000000000000081526004016104d9906111f3565b60405180910390fd5b60008161ffff1614156105ef5760005b6003805490508110156105c5576003818154811061051357610512611213565b5b9060005260206000200160009054906101000a900473ffffffffffffffffffffffffffffffffffffffff1673ffffffffffffffffffffffffffffffffffffffff166108fc600480549050600380549050600161056f91906112a0565b61057991906112d1565b600154610586919061132b565b9081150290604051600060405180830381858888f193505050501580156105b1573d6000803e3d6000fd5b5080806105bd90611381565b9150506104f2565b50600360006105d49190610e41565b600460006105e29190610e41565b6105ea610b35565b6106f9565b60018161ffff1614156106f85760005b6004805490508110156106d257600481815481106106205761061f611213565b5b9060005260206000200160009054906101000a900473ffffffffffffffffffffffffffffffffffffffff1673ffffffffffffffffffffffffffffffffffffffff166108fc600380549050600480549050600161067c91906112a0565b61068691906112d1565b600154610693919061132b565b9081150290604051600060405180830381858888f193505050501580156106be573d6000803e3d6000fd5b5080806106ca90611381565b9150506105ff565b50600360006106e19190610e41565b600460006106ef9190610e41565b6106f7610b35565b5b5b50565b6003818154811061070c57600080fd5b906000526020600020016000915054906101000a900473ffffffffffffffffffffffffffffffffffffffff1681565b610743610d75565b73ffffffffffffffffffffffffffffffffffffffff16610761610b0c565b73ffffffffffffffffffffffffffffffffffffffff16146107b7576040517f08c379a00000000000000000000000000000000000000000000000000000000081526004016107ae906111f3565b60405180910390fd5b60003073ffffffffffffffffffffffffffffffffffffffff163190503373ffffffffffffffffffffffffffffffffffffffff166108fc829081150290604051600060405180830381858888f19350505050158015610819573d6000803e3d6000fd5b5050565b60066020528060005260406000206000915090508060000154908060010160009054906101000a900461ffff16905082565b6004818154811061085f57600080fd5b906000526020600020016000915054906101000a900473ffffffffffffffffffffffffffffffffffffffff1681565b600080600090505b600380549050811015610932578273ffffffffffffffffffffffffffffffffffffffff16600382815481106108ce576108cd611213565b5b9060005260206000200160009054906101000a900473ffffffffffffffffffffffffffffffffffffffff1673ffffffffffffffffffffffffffffffffffffffff16141561091f576001915050610938565b808061092a90611381565b915050610896565b50600090505b919050565b610945610d75565b73ffffffffffffffffffffffffffffffffffffffff16610963610b0c565b73ffffffffffffffffffffffffffffffffffffffff16146109b9576040517f08c379a00000000000000000000000000000000000000000000000000000000081526004016109b0906111f3565b60405180910390fd5b6109c36000610d7d565b565b60025481565b60015434146109d957600080fd5b6109e23361088e565b156109ec57600080fd5b6109f53361088e565b158015610a05575060008160ff16145b15610a6e576003339080600181540180825580915050600190039060005260206000200160009091909190916101000a81548173ffffffffffffffffffffffffffffffffffffffff021916908373ffffffffffffffffffffffffffffffffffffffff1602179055505b610a7733610bce565b158015610a87575060018160ff16145b15610af0576004339080600181540180825580915050600190039060005260206000200160009091909190916101000a81548173ffffffffffffffffffffffffffffffffffffffff021916908373ffffffffffffffffffffffffffffffffffffffff1602179055505b3460026000828254610b02919061132b565b9250508190555050565b60008060009054906101000a900473ffffffffffffffffffffffffffffffffffffffff16905090565b610b3d610d75565b73ffffffffffffffffffffffffffffffffffffffff16610b5b610b0c565b73ffffffffffffffffffffffffffffffffffffffff1614610bb1576040517f08c379a0000000000000000000000000000000000000000000000000000000008152600401610ba8906111f3565b60405180910390fd5b6000600560006101000a81548160ff021916908315150217905550565b600080600090505b600480549050811015610c72578273ffffffffffffffffffffffffffffffffffffffff1660048281548110610c0e57610c0d611213565b5b9060005260206000200160009054906101000a900473ffffffffffffffffffffffffffffffffffffffff1673ffffffffffffffffffffffffffffffffffffffff161415610c5f576001915050610c78565b8080610c6a90611381565b915050610bd6565b50600090505b919050565b610c85610d75565b73ffffffffffffffffffffffffffffffffffffffff16610ca3610b0c565b73ffffffffffffffffffffffffffffffffffffffff1614610cf9576040517f08c379a0000000000000000000000000000000000000000000000000000000008152600401610cf0906111f3565b60405180910390fd5b600073ffffffffffffffffffffffffffffffffffffffff168173ffffffffffffffffffffffffffffffffffffffff161415610d69576040517f08c379a0000000000000000000000000000000000000000000000000000000008152600401610d609061143c565b60405180910390fd5b610d7281610d7d565b50565b600033905090565b60008060009054906101000a900473ffffffffffffffffffffffffffffffffffffffff169050816000806101000a81548173ffffffffffffffffffffffffffffffffffffffff021916908373ffffffffffffffffffffffffffffffffffffffff1602179055508173ffffffffffffffffffffffffffffffffffffffff168173ffffffffffffffffffffffffffffffffffffffff167f8be0079c531659141344cd1fd0a4f28419497f9722a3daafe3b4186f6b6457e060405160405180910390a35050565b5080546000825590600052602060002090810190610e5f9190610e62565b50565b5b80821115610e7b576000816000905550600101610e63565b5090565b6000819050919050565b610e9281610e7f565b82525050565b6000602082019050610ead6000830184610e89565b92915050565b600080fd5b600061ffff82169050919050565b610ecf81610eb8565b8114610eda57600080fd5b50565b600081359050610eec81610ec6565b92915050565b600060208284031215610f0857610f07610eb3565b5b6000610f1684828501610edd565b91505092915050565b610f2881610e7f565b8114610f3357600080fd5b50565b600081359050610f4581610f1f565b92915050565b600060208284031215610f6157610f60610eb3565b5b6000610f6f84828501610f36565b91505092915050565b600073ffffffffffffffffffffffffffffffffffffffff82169050919050565b6000610fa382610f78565b9050919050565b610fb381610f98565b82525050565b6000602082019050610fce6000830184610faa565b92915050565b6000610fdf82610f78565b9050919050565b610fef81610fd4565b8114610ffa57600080fd5b50565b60008135905061100c81610fe6565b92915050565b60006020828403121561102857611027610eb3565b5b600061103684828501610ffd565b91505092915050565b61104881610eb8565b82525050565b60006040820190506110636000830185610e89565b611070602083018461103f565b9392505050565b61108081610f98565b811461108b57600080fd5b50565b60008135905061109d81611077565b92915050565b6000602082840312156110b9576110b8610eb3565b5b60006110c78482850161108e565b91505092915050565b60008115159050919050565b6110e5816110d0565b82525050565b600060208201905061110060008301846110dc565b92915050565b600060ff82169050919050565b61111c81611106565b811461112757600080fd5b50565b60008135905061113981611113565b92915050565b60006020828403121561115557611154610eb3565b5b60006111638482850161112a565b91505092915050565b61117581610fd4565b82525050565b6000602082019050611190600083018461116c565b92915050565b600082825260208201905092915050565b7f4f776e61626c653a2063616c6c6572206973206e6f7420746865206f776e6572600082015250565b60006111dd602083611196565b91506111e8826111a7565b602082019050919050565b6000602082019050818103600083015261120c816111d0565b9050919050565b7f4e487b7100000000000000000000000000000000000000000000000000000000600052603260045260246000fd5b7f4e487b7100000000000000000000000000000000000000000000000000000000600052601260045260246000fd5b7f4e487b7100000000000000000000000000000000000000000000000000000000600052601160045260246000fd5b60006112ab82610e7f565b91506112b683610e7f565b9250826112c6576112c5611242565b5b828204905092915050565b60006112dc82610e7f565b91506112e783610e7f565b9250817fffffffffffffffffffffffffffffffffffffffffffffffffffffffffffffffff04831182151516156113205761131f611271565b5b828202905092915050565b600061133682610e7f565b915061134183610e7f565b9250827fffffffffffffffffffffffffffffffffffffffffffffffffffffffffffffffff0382111561137657611375611271565b5b828201905092915050565b600061138c82610e7f565b91507fffffffffffffffffffffffffffffffffffffffffffffffffffffffffffffffff8214156113bf576113be611271565b5b600182019050919050565b7f4f776e61626c653a206e6577206f776e657220697320746865207a65726f206160008201527f6464726573730000000000000000000000000000000000000000000000000000602082015250565b6000611426602683611196565b9150611431826113ca565b604082019050919050565b6000602082019050818103600083015261145581611419565b905091905056fea26469706673582212209fa1df612a286b1abf9fbb7618bac91fa1b072381daaa23e5810f1c6207dc5e464736f6c634300080b0033",
  "immutableReferences": {},
  "source": "// SPDX-License-Identifier: MIT\npragma solidity ^0.8.0;\n\nimport \"@openzeppelin/contracts/access/Ownable.sol\";\n\ncontract Casino is Ownable {\n   uint256 public bet;\n   uint256 public prizePool;\n   address payable[] public playersTeamA;\n   address payable[] public playersTeamB;\n   bool private betIsOpen = true;\n   struct Player {\n      uint256 amountBet;\n      uint16 teamSelected;\n    }\n// The address of the player and team selected => the user info\n   mapping(address => Player) public playerInfo;\n   \n   \n  constructor() {\n      bet = 100000000000000;\n    }\n    \nfunction checkPlayerTeamA(address payable player) public view returns(bool){\n      for(uint256 i = 0; i < playersTeamA.length; i++){\n         if(playersTeamA[i] == player) return true;\n      }\n      return false;\n    }\n\nfunction checkPlayerTeamB(address payable player) public view returns(bool){\n      for(uint256 i = 0; i < playersTeamB.length; i++){\n         if(playersTeamB[i] == player) return true;\n      }\n      return false;\n    }\n\nfunction submitBet(uint8 _teamSelected) public payable {\n      //The first require is used to check if the player already exist\n      //The second one is used to see if the value sended by the player is\n      //Higher than the minimum value\n      require(msg.value == bet);\n      require(!checkPlayerTeamA(payable(msg.sender)));\n\n//If player exists in array, do not add wallet address to pool, but if has not bet yet, push wallet address, aka player to address pool\n      if (!checkPlayerTeamA(payable(msg.sender)) && _teamSelected == 0){\n        playersTeamA.push(payable(msg.sender));\n      }\n\n      if (!checkPlayerTeamB(payable(msg.sender)) && _teamSelected == 1){\n        playersTeamB.push(payable(msg.sender));\n      }\n//at the end, we increment the stakes of the team selected with the player bet\n        prizePool += msg.value;\n    }\n\n// Pay Out for team 0 (A) or 1 (B)\nfunction payOut(uint16 teamWinner) public onlyOwner {\n        if (teamWinner == 0) {\n            for(uint256 i = 0; i < playersTeamA.length; i++){\n            playersTeamA[i].transfer((bet+(1/playersTeamA.length * playersTeamB.length)));\n            }\n            delete playersTeamA;\n            delete playersTeamB;\n            closeBet();\n            }\n            else if (teamWinner == 1) {\n            for(uint256 i = 0; i < playersTeamB.length; i++){\n            playersTeamB[i].transfer((bet+(1/playersTeamB.length * playersTeamA.length)));\n            }\n            delete playersTeamA;\n            delete playersTeamB;\n            closeBet();\n            }\n        }\n\n// Withdraw remaining funds\nfunction withdraw() public onlyOwner {\n        uint balance = address(this).balance;\n        payable(msg.sender).transfer(balance);\n    }\n\n// Check Prize Pool\nfunction checkPrizePool() public view returns(uint256){\n       return prizePool;\n    }\n\nfunction openBet() public onlyOwner {\n        betIsOpen = true;\n    }\n\nfunction closeBet() public onlyOwner {\n        betIsOpen = false;\n    }\n}\n",
  "sourcePath": "/Users/balthazar/coding-projects/sports-casino/contracts/Casino.sol",
  "compiler": {
    "name": "solc",
    "version": "0.8.11+commit.d7f03943.Emscripten.clang"
  },
  "schemaVersion": "3.3.4",
  "updatedAt": "2022-06-22T23:14:44.967Z",
  "networkType": "ethereum",
  "devdoc": {
    "kind": "dev",
    "methods": {
      "owner()": {
        "details": "Returns the address of the current owner."
      },
      "renounceOwnership()": {
        "details": "Leaves the contract without owner. It will not be possible to call `onlyOwner` functions anymore. Can only be called by the current owner. NOTE: Renouncing ownership will leave the contract without an owner, thereby removing any functionality that is only available to the owner."
      },
      "transferOwnership(address)": {
        "details": "Transfers ownership of the contract to a new account (`newOwner`). Can only be called by the current owner."
      }
    },
    "version": 1
  },
  "userdoc": {
    "kind": "user",
    "methods": {},
    "version": 1
  }
}